:1000000012C047C018C017C016C015C014C013C016
:1000100012C011C010C00FC00EC00DC00CC00BC06C
:100020000AC009C008C011241FBECFE5D4E0DEBF5E
:10003000CDBF0BD05FC0E4CF8E9885B7826085BFFF
:100040008BB780648BBF78940895F6DFFFCF84B3BD
:10005000836084BBA89A0895A898089584B38C609F
:1000600084BBAB9A0895AB98089584B3806384BB36
:1000700084B3836F84BB85B3806385BB82B3836F96
:1000800082BB089585B38F7C85BB82B38C7082BBA5
:1000900008951F920F920FB60F9211242F933F9342
:1000A0004F935F936F937F938F939F93AF93BF9380
:1000B000EF93FF93CCDFD2DFD8DF2FEB87E299E01D
:1000C000215080409040E1F700C00000DBDFC4DF3A
:1000D000CADFFF91EF91BF91AF919F918F917F9177
:1000E0006F915F914F913F912F910F900FBE0F90A5
:0800F0001F901895F894FFCF52
:00000001FF
